{
  "contractName": "Manager",
  "abi": [
    {
      "inputs": [],
      "payable": false,
      "stateMutability": "nonpayable",
      "type": "constructor"
    },
    {
      "constant": false,
      "inputs": [
        {
          "name": "_tokensAmount",
          "type": "uint256"
        }
      ],
      "name": "setTokens",
      "outputs": [],
      "payable": false,
      "stateMutability": "nonpayable",
      "type": "function"
    },
    {
      "constant": false,
      "inputs": [
        {
          "name": "_addresses",
          "type": "address[]"
        },
        {
          "name": "_amounts",
          "type": "uint256[]"
        }
      ],
      "name": "setContributions",
      "outputs": [],
      "payable": false,
      "stateMutability": "nonpayable",
      "type": "function"
    },
    {
      "constant": true,
      "inputs": [
        {
          "name": "contributor",
          "type": "address"
        }
      ],
      "name": "getContribution",
      "outputs": [
        {
          "name": "",
          "type": "uint256"
        }
      ],
      "payable": false,
      "stateMutability": "view",
      "type": "function"
    },
    {
      "constant": true,
      "inputs": [
        {
          "name": "contributor",
          "type": "address"
        }
      ],
      "name": "getTokens",
      "outputs": [
        {
          "name": "",
          "type": "uint256"
        }
      ],
      "payable": false,
      "stateMutability": "view",
      "type": "function"
    },
    {
      "constant": true,
      "inputs": [],
      "name": "getTokensAmount",
      "outputs": [
        {
          "name": "",
          "type": "uint256"
        }
      ],
      "payable": false,
      "stateMutability": "view",
      "type": "function"
    }
  ],
  "bytecode": "0x6060604052341561000f57600080fd5b336000806101000a81548173ffffffffffffffffffffffffffffffffffffffff021916908373ffffffffffffffffffffffffffffffffffffffff1602179055506103d38061005e6000396000f30060606040526004361061006d576000357c0100000000000000000000000000000000000000000000000000000000900463ffffffff16806321eff7fc146100725780632c014a9d146100bf578063450efe21146100e257806362486d421461012f578063a7de3f6b14610158575b600080fd5b341561007d57600080fd5b6100a9600480803573ffffffffffffffffffffffffffffffffffffffff169060200190919050506101f2565b6040518082815260200191505060405180910390f35b34156100ca57600080fd5b6100e0600480803590602001909190505061023b565b005b34156100ed57600080fd5b610119600480803573ffffffffffffffffffffffffffffffffffffffff16906020019091905050610245565b6040518082815260200191505060405180910390f35b341561013a57600080fd5b610142610292565b6040518082815260200191505060405180910390f35b341561016357600080fd5b6101f06004808035906020019082018035906020019080806020026020016040519081016040528093929190818152602001838360200280828437820191505050505050919080359060200190820180359060200190808060200260200160405190810160405280939291908181526020018383602002808284378201915050505050509190505061029c565b005b6000600460008373ffffffffffffffffffffffffffffffffffffffff1673ffffffffffffffffffffffffffffffffffffffff168152602001908152602001600020549050919050565b8060038190555050565b6000600354600460008473ffffffffffffffffffffffffffffffffffffffff1673ffffffffffffffffffffffffffffffffffffffff16815260200190815260200160002054029050919050565b6000600354905090565b60008060009054906101000a900473ffffffffffffffffffffffffffffffffffffffff1673ffffffffffffffffffffffffffffffffffffffff163373ffffffffffffffffffffffffffffffffffffffff161415156102f657fe5b8151835114151561030357fe5b600090505b60018351038111151561035a5761034d838281518110151561032657fe5b90602001906020020151838381518110151561033e57fe5b9060200190602002015161035f565b8080600101915050610308565b505050565b80600460008473ffffffffffffffffffffffffffffffffffffffff1673ffffffffffffffffffffffffffffffffffffffff1681526020019081526020016000208190555050505600a165627a7a7230582000fd2b826bf8c0b3a61b4f4cda80bb260c0a43d90b696d084ee846626c77531f0029",
  "source": "pragma solidity ^0.4.17;\n\ncontract Manager {\n    address owner;\n    address[] addresses;\n    uint[] amounts;\n    uint tokensReceived;\n    mapping (address => uint) contributions;\n\n\n    function Manager() public {\n        owner = msg.sender;\n    }\n\n    function setTokens(uint _tokensAmount) public { tokensReceived = _tokensAmount; }\n\n    function setContributions(address[] _addresses, uint[] _amounts) public {\n        assert(msg.sender == owner); // only owner can set contributions\n        assert(_addresses.length == _amounts.length);\n        for (uint i = 0; i <= _addresses.length-1; i++) {\n            setContribution(_addresses[i], _amounts[i]);\n        }\n    }\n\n    function setContribution(address _address, uint _amount) internal {\n        contributions[_address] = _amount;\n    }\n\n    function getContribution(address contributor) public view returns (uint) {\n        return contributions[contributor];\n    }\n\n    function getTokens(address contributor) public view returns (uint) {\n        return (contributions[contributor] * tokensReceived);\n    }\n\n    function getTokensAmount() public view returns (uint) {\n        return tokensReceived;\n    }\n}\n",
  "sourcePath": "/home/odin/cryptowise-pool/contracts/Manager.sol",
  "compiler": {
    "name": "solc",
    "version": "0.4.19+commit.c4cbbb05.Emscripten.clang"
  },
  "schemaVersion": "2.0.0",
  "updatedAt": "2018-02-28T04:47:24.821Z"
}